:100000008FEF00F00000000000EF00F000000000A3
:0A0010000000000000000000F3D71C
:10001C00040E0C6E3A0E0D6E0D2EFED70C2EFCD768
:04002C0000001200BE
:0E003000ACB202D00000FCD727C0ADFF12001A
:0A003E00000E9EBA010E006E1200C3
:10004800AECF01F0ABA202D0AB98AB8801C000F0F4
:02005800120094
:10005A00300E156E000E166E270E176E000E186EF5
:10006A00480E236E000E246E000E256E000E266EBC
:10007A003E0E1F6E000E206E000E216E000E226EC6
:10008A00FF0E1B6EFF0E1C6E000E1D6E000E1E6E06
:10009A00AC8A900EAB6E948E949C9EAA03D0AECF7F
:0600AA0000F0FBD712007C
:1000B0002D6A29C001F0010E006E015004E00036E7
:1000C0000090FF0FFBD700C02CF027C0E9FF28C02D
:1000D000EAFF0050EE14016E0152010ED8A4000E8A
:1000E000006E2B50001A18E02A50000804E296DF38
:1000F00095DF2A06F9D727C0E9FF28C0EAFF2C5070
:10010000EE14016E0152010ED8A4000E006E2B50A9
:0E011000001A02E0FF0E2D6E2DC000F012004E
:10011E000F0EC16E070EB46E816A8A6A9380938247
:10012E009384846A8D6A9692969096948D928D9011
:10013E008D94B886020EB06E080EAF6EAC8486DF5C
:10014E00030E0B6E8A0E0C6E550E0D6E0D2EFED717
:10015E000C2EFCD70B2EFAD700000000810E276E56
:10016E000F0E286E296A0A0E2A6E2B6A9ADF00522B
:10017E0012E0810E276E0F0E286E296A0A0E2A6E65
:10018E002B6A8FDF005201E0F4D7730E1A6E730ED6
:10019E00276E47DF3DD0810E276E0F0E286E010EA3
:1001AE00296E0A0E2A6E2B6A7CDF005213E0810E36
:1001BE00276E0F0E286E010E296E0A0E2A6E2B6AFE
:1001CE0070DF005201E0F3D7610E1A6E610E276EDA
:1001DE0028DF1ED0810E276E0F0E286E020E296E9E
:1001EE000A0E2A6E2B6A5DDF005212E0810E276E18
:1001FE000F0E286E020E296E0A0E2A6E2B6A51DF22
:10020E00005201E0F3D7620E1A6E620E276E09DFFE
:10021E000FDF0050010A3EE110DF00C019F0005060
:10022E00400A07E18D80640E1A6E640E276EF9DEA9
:10023E0031D01950210A07E18D90630E1A6E630EAC
:10024E00276EEFDE27D01950230A07E18D82650E47
:10025E001A6E650E276EE5DE1DD01950240A07E1D1
:10026E008D92660E1A6E660E276EDBDE13D0195057
:10027E005E0A07E18D84680E1A6E680E276ED1DE57
:10028E0009D01950260A06E18D94670E1A6E670E74
:08029E00276EC7DE63D7FFD70E
:020000040030CA
:0E000000240C1E1EFF8381FF0FC00FE00F4077
:00000001FF
