:100000008FEF00F00000000000EF00F000000000A3
:0A0010000000000000000000F3D71C
:10001C00040E0C6E3A0E0D6E0D2EFED70C2EFCD768
:04002C0000001200BE
:0A003000000E9EBA010E006E1200D1
:10003A00AECF01F0ABA202D0AB98AB8801C000F002
:02004A001200A2
:10004C00356A31C001F0010E006E015004E000363B
:10005C000090FF0FFBD700C034F02FC0E9FF30C079
:10006C00EAFF0050EE14016E0152010ED8A4000EEE
:10007C00006E3350001A18E03250000804E2C8DF5A
:10008C00C7DF3206F9D72FC0E9FF30C0EAFF345082
:10009C00EE14016E0152010ED8A4000E006E335006
:0E00AC00001A02E0FF0E356E35C000F01200A3
:1000BA00100E156E010E166E2F0E176E000E186EAC
:1000CA003A0E236E000E246E000E256E000E266E6A
:1000DA00300E1F6E000E206E000E216E000E226E74
:1000EA00FF0E1B6EFF0E1C6E000E1D6E000E1E6EA6
:1000FA00AC8A900EAB6E948E949C9EAA03D0AECF1F
:06010A0000F0FBD712001B
:0E011000ACB202D00000FCD72FC0ADFF120031
:10011E000F0EC112070EB412816A8A6A94809482FD
:10012E009484938093829384836A8C6A8C808C826D
:10013E008C848C86959095929594959696908D80BC
:10014E0096928D82B886020EB06E080EAF6EAC849B
:10015E00ADDF030E0B6E8A0E0C6E550E0D6E0D2E50
:10016E00FED70C2EFCD70B2EFAD7000000008CB059
:10017E0010D08D70080E0B6E9D0E0C6E050E0D6E52
:10018E000D2EFED70C2EFCD70B2EFAD7000000003A
:10019E0002D08CB08D808DB005D04F0E1A6E4F0EE2
:1001AE002F6EAFDF8DA005D0460E1A6E460E2F6E47
:1001BE00A8DF8CB004D08CA202D08D9201D08D829B
:1001CE008DB205D0430E1A6E430E2F6E9ADF8DA29E
:1001DE0005D0560E1A6E560E2F6E93DF810E2F6EB1
:1001EE000F0E306E316A0A0E326E336A28DF0052FD
:1001FE0045E0810E2F6E0F0E306E316A0A0E326E92
:10020E00336A1DDF005201E0F4D78C808C82276A9E
:10021E00286A800E2818006E800E005C02E1110E16
:10022E00275C25E28D70080E0B6E9D0E0C6E050E72
:10023E000D6E0D2EFED70C2EFCD70B2EFAD700000E
:10024E0000008DB005D04F0E1A6E4F0E2F6E59DF77
:10025E008DA005D0460E1A6E460E2F6E52DF510E31
:10026E001A6E510E2F6E4DDF274A282AD2D7410E15
:10027E001A6E410E2F6E45DF8C908C92810E2F6E72
:10028E000F0E306E010E316E0A0E326E336AD7DEED
:10029E00005246E0810E2F6E0F0E306E010E316E43
:1002AE000A0E326E336ACBDE005201E0F3D78C8039
:1002BE008C82296A2A6A800E2A18006E800E005CD3
:1002CE0002E1110E295C25E28D70080E0B6E9D0E5B
:1002DE000C6E050E0D6E0D2EFED70C2EFCD70B2EB2
:1002EE00FAD7000000008DB005D04F0E1A6E4F0EDB
:1002FE002F6E07DF8DA005D0460E1A6E460E2F6E9E
:10030E0000DF570E1A6E570E2F6EFBDE294A2A2A71
:10031E00D2D7530E1A6E530E2F6EF3DE8C908C8244
:10032E00810E2F6E0F0E306E020E316E0A0E326E71
:10033E00336A85DE005214E0810E2F6E0F0E306E82
:10034E00020E316E0A0E326E336A79DE005201E011
:10035E00F3D7440E1A6E440E2F6ED3DE8C808C8231
:10036E008CB015D08CB213D0820E2F6E0F0E306E55
:10037E00316A0A0E326E336A62DE005207E0470EB1
:10038E001A6E470E2F6EBDDE8C808C8213D0820EBD
:10039E002F6E0F0E306E020E316E0A0E326E336AF3
:1003AE004EDE005207E0480E1A6E480E2F6EA9DE82
:1003BE008C808C8236DE0050010AD8A493D036DEB3
:1003CE0000C019F00050210A35E18C808C822B6A16
:1003DE002C6A800E2C18006E800E005C02E1110E4D
:1003EE002B5C20E28D70080E0B6E9D0E0C6E050EB2
:1003FE000D6E0D2EFED70C2EFCD70B2EFAD700004D
:10040E0000008DB005D04F0E1A6E4F0E2F6E79DE96
:10041E008DA005D0460E1A6E460E2F6E72DE2B4A3A
:10042E002C2AD7D7410E1A6E410E2F6E6ADE8C9093
:10043E008C9258D01950400A35E18C808C822D6AEE
:10044E002E6A800E2E18006E800E005C02E1110ED8
:10045E002D5C20E28D70080E0B6E9D0E0C6E050E3F
:10046E000D6E0D2EFED70C2EFCD70B2EFAD70000DC
:10047E0000008DB005D04F0E1A6E4F0E2F6E41DE5E
:10048E008DA005D0460E1A6E460E2F6E3ADE2D4A00
:10049E002E2AD7D7530E1A6E530E2F6E32DE8C9035
:1004AE008C8220D01950230A08E1440E1A6E440E95
:1004BE002F6E27DE8C808C8215D01950240A08E10D
:1004CE00470E1A6E470E2F6E1CDE8C808C820AD061
:1004DE001950250A07E1480E1A6E480E2F6E11DECE
:0804EE008C808C8244D6FFD7FC
:020000040030CA
:0E000000240C1F1EFF8381FF0FC00FE00F4076
:00000001FF
