:100000008FEF00F00000000000EF00F000000000A3
:0A0010000000000000000000F3D71C
:10001C00040E0C6E3A0E0D6E0D2EFED70C2EFCD768
:04002C0000001200BE
:0E003000ACB202D00000FCD727C0ADFF12001A
:0A003E00000E9EBA010E006E1200C3
:10004800AECF01F0ABA202D0AB98AB8801C000F0F4
:02005800120094
:10005A00300E156E000E166E270E176E000E186EF5
:10006A00480E236E000E246E000E256E000E266EBC
:10007A003E0E1F6E000E206E000E216E000E226EC6
:10008A00FF0E1B6EFF0E1C6E000E1D6E000E1E6E06
:10009A00AC8A900EAB6E948E949C9EAA03D0AECF7F
:0600AA0000F0FBD712007C
:1000B0002D6A29C001F0010E006E015004E00036E7
:1000C0000090FF0FFBD700C02CF027C0E9FF28C02D
:1000D000EAFF0050EE14016E0152010ED8A4000E8A
:1000E000006E2B50001A18E02A50000804E296DF38
:1000F00095DF2A06F9D727C0E9FF28C0EAFF2C5070
:10010000EE14016E0152010ED8A4000E006E2B50A9
:0E011000001A02E0FF0E2D6E2DC000F012004E
:10011E000F0EC112070EB412826A8B6A94809482FB
:10012E009484816A8A6A938093829384846A8D6AA6
:10013E0096908D8096928D8296948D84836A8C6A29
:10014E0095908C8095928C8295948C8495968C86C5
:10015E00B886020EB06E080EAF6EAC8477DF030E5B
:10016E000B6E8A0E0C6E550E0D6E0D2EFED70C2ECE
:10017E00FCD70B2EFAD700000000810E276E0F0E53
:10018E00286E296A0A0E2A6E2B6A8BDF005206E051
:10019E00410E1A6E410E276E44DF11D0810E276E6E
:1001AE000F0E286E296A0A0E2A6E010E2B6E79DF4B
:1001BE00005205E0530E1A6E530E276E32DF810E7B
:1001CE00276E0F0E286E010E296E0A0E2A6E2B6AEE
:1001DE0068DF005206E0440E1A6E440E276E21DFD1
:1001EE0012D0810E276E0F0E286E010E296E0A0E8A
:1001FE002A6E010E2B6E55DF005205E0460E1A6E6A
:10020E00460E276E0EDF810E276E0F0E286E020E23
:10021E00296E0A0E2A6E2B6A44DF005206E0470E44
:10022E001A6E470E276EFDDE12D0810E276E0F0E50
:10023E00286E020E296E0A0E2A6E010E2B6E31DF0B
:10024E00005205E0480E1A6E480E276EEADE820E48
:10025E00276E0F0E286E296A0A0E2A6E2B6A21DF70
:10026E00005206E0310E1A6E310E276EDADE11D014
:10027E00820E276E0F0E286E296A0A0E2A6E010E46
:10028E002B6E0FDF005205E0320E1A6E320E276E05
:10029E00C8DE820E276E0F0E286E010E296E0A0E14
:1002AE002A6E2B6AFEDE005206E0330E1A6E330EF5
:1002BE00276EB7DE12D0820E276E0F0E286E010E3D
:1002CE00296E0A0E2A6E010E2B6EEBDE005205E031
:1002DE00340E1A6E340E276EA4DE820E276E0F0EAB
:1002EE00286E020E296E0A0E2A6E2B6ADADE005274
:1002FE0006E0350E1A6E350E276E93DE12D0820E84
:10030E00276E0F0E286E020E296E0A0E2A6E010E31
:10031E002B6EC7DE005205E0360E1A6E360E276EB5
:10032E0080DE86DE0050010AD8A48ED086DE00C0A4
:10033E0019F00050210A07E18D90710E1A6E710EA0
:10034E00276E6FDE81D01950400A07E18D80770E3F
:10035E001A6E770E276E65DE77D01950230A07E1E5
:10036E008D92650E1A6E650E276E5BDE6DD019507E
:10037E00240A07E18D82720E1A6E720E276E51DEFE
:10038E0063D01950250A07E18D94740E1A6E740EFF
:10039E00276E47DE59D019505E0A07E18D84790E1B
:1003AE001A6E790E276E3DDE4FD01950260A07E1E0
:1003BE008C907A0E1A6E7A0E276E33DE45D0195057
:1003CE002A0A07E18C80780E1A6E780E276E29DEC7
:1003DE003BD01950280A07E18C92630E1A6E630EF9
:1003EE00276E1FDE31D01950290A07E18C82760E56
:1003FE001A6E760E276E15DE27D019505F0A07E1AA
:10040E008C94620E1A6E620E276E0BDE1DD0195082
:10041E002B0A07E18C846E0E1A6E6E0E276E01DEAD
:10042E0013D019503C0A07E18C966D0E1A6E6D0EA4
:10043E00276EF7DD09D019503E0A06E18C866C0E48
:0C044E001A6E6C0E276EEDDD98D6FFD7FD
:020000040030CA
:0E000000240C1F1EFF8381FF0FC00FE00F4076
:00000001FF
